8=FIX.4.2|9=178|35=AE|56=LSEHub|49=BROKERX|128=LSETR|34=2175|52=20120126-15:15:54|918=GBP|31=89.0000000|64=20120126|828=1|60=20120126-13:32:49|32=6|22=4|571=124|43=N|570=N|150=0|48=GB0007188757|10=206|